:1000000000000320D10100005DE7010015E70100B9
:1000100015E7010015E7010015E7010015E70100EC
:1000200015E7010015E7010015E701005DE7010094
:100030005DE7010015E70100CD030200D1040200D5
:100040005DE701005DE701005DE701005DE701009C
:100050005DE701005DE701005DE701005DE701008C
:100060005DE701005DE701005DE701005DE701007C
:100070005DE701005DE701005DE701005DE701006C
:100080005DE701005DE701005DE701005DE701005C
:100090005DE701005DE701005DE701005DE701004C
:1000A000C5DA0100D1DA01005DE701005DE701007A
:1000B0005DE701005DE701005DE70100990F0200C7
:1000C0005DE70100C51002005DE70100F1110200CB
:1000D0005DE70100E91202005DE701005DE7010054
:1000E0005DE701005DE701005DE701005DE70100FC
:1000F0005DE701005DE701005DE701005DE70100EC
:100100005DE701005DE701005DE701005DE70100DB
:100110005DE7010089EC01005DE701005DE701009A
:100120005DE701005DE701005DE701005DE70100BB
:100130005DE701005DE701005DE701005DE70100AB
:10014000810102005DE70100E11302005DE70100AB
:100150005DE701005DE701005DE701005DE701008B
:100160005DE701005DE70100DDDA01005DE7010008
:100170005DE701005DE701005DE701005DE701006B
:100180005DE701005DE701005DE701005DE701005B
:100190005DE701005DE70100D91402005DE70100A1
:1001A0005DE701005DE701005DE701005DE701003B
:1001B0005DE701005DE701005DE701005DE701002B
:1001C0005DE701005DE701005DE701005DE701001B
:1001D000594B4CF2205210B51A804DF628121A8055
:1001E00000BF00BF1EF0BEFA544B4FF030621A60E1
:1001F000534A9A60534ADA60534B4FF470021A60C4
:10020000524B534A1A60534A136813F4807304D153
:1002100051490B604FF4A8531360504B1A781107E3
:1002200003D51A7842F008021A704D4B4D49AA22A4
:100230001A704D4A4D4B8B4204D252F8040F43F8CA
:10024000040BF8E74A4B4B4900228B4202D243F899
:10025000042BFAE74849494A002352F8230041F8A1
:1002600023000133742BF8D1454B464A802103F813
:10027000011B9342FBD1444B3F4A1A60434B8A22F5
:100280001A70A3F5805324225A70A0221A709A790A
:100290009207FCD59A79D406FCD43D4A937903F0B1
:1002A0000C03082B3A4BF9D101221A7148225A71DA
:1002B0009A799006FCD5364A9179354B4906FBD59B
:1002C000344A354911600221516020221A709A790E
:1002D00002F00C020C2AFAD1304B314A1A60314B31
:1002E000314A1A6000225A60072243F8042C2F4A30
:1002F000C3F80C2D62B61EF053FB174B1B68DA07D0
:1003000005D52B481EF0B0FA2A4B2B4A1A602B4B0E
:100310001B785B0609D5274C274B22689A4204D1EB
:1003200023481EF0A1FA0023236025F0FDFF1EF0F4
:100330001FFA20F077FAFEE70E20054030800440D7
:10034000823F04000100002B88ED00E0002008E05F
:100350000300008510D0034014D0034002D00740B2
:1003600000E0074078EC012074F60200B0D90120CB
:1003700078EC0120D022022000CE012000000000F5
:1003800000E400E064E400E008ED00E00050064016
:100390000040064044800440000003010480044003
:1003A000C010050014E000E0FF76010000002020EE
:1003B000B4D857601CE00340A5C3945A00F007402E
:1003C000FFFFFFFFFFFFFFFFFFFFFFFFFFFFFFFF3D
:1003D000FFFFFFFFFFFFFFFFFFFFFFFFFFFFFFFF2D
:1003E000FFFFFFFFFFFFFFFFFFFFFFFFFFFFFFFF1D
:1003F000FFFFFFFFFFFFFFFFFFFFFFFFFFFFFFFF0D
:10040000FFFFFFFFFFFFFFFFFFFFFFFFDEF9FFFF23
:1004100010B5054C237833B9044B13B10448AFF33E
:1004200000800123237010BD78EC01200000000043
:1004300070F60200084B10B51BB108490848AFF32D
:1004400000800848036803B910BD074B002BFBD0A0
:10045000BDE81040184700BF000000007CEC012000
:1004600070F6020078EC012000000000F8B5836906
:100470004568013903FB015153B107461446D618AC
:100480008D1A6019FB68984704F8010BB442F8D143
:100490000020F8BD8160C260704700BFF8B5054616
:1004A00001F11007002600F11004DB2029606F60C5
:1004B0006E61AB610E1BEA612874014605F11F07EE
:1004C00001E014F8011FAB6830199847BC42F8D11D
:1004D000287CDB3818BF0120F8BD00BFF8B501F15A
:1004E000100380E80A0000F1100405460E1B00F11D
:1004F0002007A019EB68984704F8010BBC42F8D11B
:100500000020F8BD09B90220704710B44469A14227
:1005100003D902205DF8044B70475DF8044BFFF7E8
:10052000A5BF00BFF8B543698B4201D20220F8BDD8
:1005300083694568013903FB015153B106461446EE
:10054000D7188D1A601914F8011BB3689847BC427C
:10055000F8D10020F8BD00BF044B93F8C9318342A5
:1005600003D1034BA1F5005119627047ECDB012068
:100570005417022070B51D4D2A68064652B11C4C16
:100580008F3A012A1BD923781A4A83F0010323707A
:10059000166070BD07211848154C1DF067FB174BFE
:1005A0001B780BB12378C3B9154B16491248D3E910
:1005B00000231FF0C1FF2A688F3A012AE3D80122E5
:1005C00005210D481DF052FB20201DF04BFF0E4968
:1005D000024609481FF0B0FFD5E7094B0B49064812
:1005E000D3E900231FF0A8FF2A68C9E7C80A022040
:1005F00080DA0120A4180220D4150220BC190220A0
:10060000B8D9012098AE0200A4AE02008CAE020060
:1006100010B5104B104A93F8D811104B92ED007A98
:100620000F4C104A03EB8103D3ED006AB8EE477A12
:100630000023C7EE267A1370FDEEE77AC4ED007A48
:100640001EF03EF923680849084AC01A01230860D1
:10065000137010BDECDB012054DA01206CC90200DC
:1006600008FD012048140220F417022014ED012097
:1006700070B5F3EE047AB4EEE70AF1EE10FA2DED60
:10068000028B06460D4626D4DFED167AB4EEE70A55
:10069000F1EE10FA06DDBDEC028B134B134C346007
:1006A0002B6070BDDFED127A9FED128A20EE270AD3
:1006B00060EE087AFDEEE77A17EE904A21F060FDD1
:1006C00020EE080ABDEC028BFDEEC07A346017EE16
:1006D000903A2B6070BDBDEC028B074B074C346029
:1006E0002B6070BD1EDE8945008C3C4B00BE6C50FB
:1006F000465615390000004FE3555D00EC555D008E
:10070000F82840F0BC802DE9F0417A4C2DED028BA9
:1007100094F8883182B0002B30D0774B774E1B682D
:100720000193019D33687648DFED765A90ED007AAB
:1007300075499FED766A0D60EB1A06EE903A27EE4A
:10074000257AF8EE666A7249724A0B78D2ED007A21
:10075000714FA6EE867A0133DBB2182B77EE277A3B
:10076000C7ED006A0B7080ED007AC2ED007A12D8F6
:10077000356002B0BDEC028BBDE8F08194F88931A0
:10078000002BCAD194F88A31002BC6D194F88B3152
:10079000002BC2D1EDE7F5EEC07AF1EE10FAB6EE1D
:1007A000008AACBF37EE888A37EEC88A9FED5B7A45
:1007B0005B4B5C48DFF89C81BDEEC88A0127B8EE30
:1007C000C88A0F70C7EE087A83ED008A0023C0ED57
:1007D000007A136017EE900A24F026FF9FED526A0C
:1007E000524B94F8D82194F8584228EE068A03EB2D
:1007F0008202BCEEC88A03EB8403D2ED007AD3ED0B
:10080000005A4B4A4B4B1770F8EE486AC8E9000192
:1008100086EEA77A4848494A49491B78C6EEA57A28
:10082000BDEEC77AFDEEE77A80ED008A81ED007AB1
:100830003048C2ED007A002B9AD190F85922002A54
:1008400096D0F8EE677ADFED3F6A87EE867AB4EEEF
:10085000E67AF1EE10FA13DB44F68D5303F17F07CD
:10086000FF090137384C207EC20721D4E28B236276
:10087000BA4240F0010038BFE783207678E770473E
:10088000B5EEC07AF1EE10FAECD4DFED306A304B01
:10089000F6EE007AE7EE267AFCEEE77A17EE902A7B
:1008A0009A4288BF4FF45077DCD817EE903AD5E7DC
:1008B000226A934205D9E28B2362BA4238BFE783AA
:1008C00056E72146002241F8203F174640FA02F33E
:1008D00013F0010F02F1010206D00B687F33DB0930
:1008E00001339F4238BF1F46082A01F10401EDD1B0
:1008F000E7833DE7ECDB0120DC1C0220E4ED012076
:1009000044140220C3F5683F30170220E851B83D77
:10091000A8DE012040160220B0FC012000606A47DA
:10092000D0ED012060DA012000007A446CC9020099
:10093000BC190220840D022054DA0120D0150220B7
:1009400008FD01200000E1441CFD012079783041C0
:10095000809F0100B8D9012070B5044608460D46B5
:1009600026F04EFB23680246294620465B68BDE818
:1009700070401847002310B4104C417202610460AB
:100980000372C36041B1194600E0026942F82310C6
:10099000427A01339A42F8DC094B1A680AB90BE033
:1009A0001A465369002BFBD15061002343618380B9
:1009B000C3805DF8044B70471860F6E774A402002A
:1009C000581E0220072928D8B5EEC00AF1EE10FA09
:1009D00070B441D49FED277A274BF6EE007AE0EE13
:1009E000077AFCEEE77A17EE902A9A423DD91A462A
:1009F0004FF45073057E45FA01F4E4070ED4C68B1C
:100A000001F108049E4240F8242038BFC38301232B
:100A100003FA01F10D43057670BC704700EB8101CC
:100A20000C6AA2421BD800230A6200F12004194676
:100A300045FA03F212F0010F03F1010306D0226818
:100A40007F32D2090132914238BF1146082B04F19E
:100A50000404EDD1C183DFE701230022CAE7C48B80
:100A60009C4238BFC3830A62D6E702F17F03DB09E9
:100A70000133BFE779783041809F010014490A684B
:100A8000002310B4134C0460437203610372C3600B
:100A90000AB91BE01A465369002BFBD150610023B1
:100AA0000D4A836243618380C38003834383C361B0
:100AB00003628385C3850363838680F836300387AA
:100AC000C363036402605DF8044B70470860E6E7A7
:100AD000581E022074A402007CEB020070B5B5EE33
:100AE000C00AF1EE10FA82B004460E4632D4F7EE98
:100AF000007AB4EEE70AF1EE10FA34DD47F6FF7340
:100B0000F5EEC00AF1EE10FA23832AD4DFED1B7A4A
:100B1000F4EEE70AF1EE10FA11DD194BA36200259D
:100B2000A26A2B464FF0FF30002125F027FA49102A
:100B30004FEA30002064E561A68502B070BD9FEDEC
:100B4000117AF6EE007AE0EE877AFCEEE77A17EE9D
:100B5000903AE3E7F5EEC00A0023F1EE10FA2383A2
:100B6000D4D50023DAE7DFED087A20EE270AFDEE80
:100B7000C07ACDED017ABDF90430C1E7A655AC4588
:100B8000C0FFFF3F4B243E4800FEFF4670B5828603
:100B9000838E00229BB282B004460E4680F8362037
:100BA00013B1012380F83630B5EEC00AF1EE10FA29
:100BB00032D4F7EE007AB4EEE70AF1EE10FA34DD43
:100BC00047F6FF73F5EEC00AF1EE10FA23832AD43C
:100BD000DFED1B7AF4EEE70AF1EE10FA11DD194BA6
:100BE000A3620025A26A2B464FF0FF30002125F0BA
:100BF000C5F949104FEA30002064E561A68502B0CE
:100C000070BD9FED117AF6EE007AE0EE877AFCEE89
:100C1000E77A17EE903AE3E7F5EEC00A0023F1EE2B
:100C200010FA2383D4D50023DAE7DFED087A20EE2B
:100C3000270AFDEEC07ACDED017ABDF90430C1E797
:100C4000A655AC45C0FFFF3F4B243E4800FEFF4683
:100C5000F5EEC00AF1EE10FAF7EE007AB4EEE70A0C
:100C60003FD9F1EE10FA1FDD444ADFED457A60EE20
:100C7000A70AFDEEE07A17EE903A63B372B6C16947
:100C80000262914259D030B481FAA2F4EFF30085A8
:100C90002D0130D494FBF3F3002B37D043620123B2
:100CA000037662B630BC7047BFEE007AB4EEC70A76
:100CB000F1EE10FA45D4DFED326A60EEA60AFDEEE1
:100CC000E06A16EE903A002B46D1B4EEE70AF1EE58
:100CD00010FA38DD294A72B60023C261037662B683
:100CE0007047F1EE10FA18DD244B72B60022C36192
:100CF000027662B670475D1C022D91BF234692FBBF
:100D0000F3F491FBF3F3E31A002BC7D19142ACBF8C
:100D10004FF0FF3201224262C1E7FFEE007AB4EEEB
:100D2000E70AF1EE10FA15D4DFED167A20EE270A65
:100D3000FDEEC07A17EE903AD7E70023037662B64D
:100D40007047114A91E7B4EEC70AF1EE10FA0CD5DC
:100D50000D4AC0E70C4BC8E7DFED0A7A20EE270A00
:100D6000FDEEC07A17EE902A88E7DFED067A20EED6
:100D7000270AFDEEC07A17EE902AACE70000FF7F4D
:100D80007978304100FEFF4E00000180002814DD1C
:100D9000013830EE000AFBD1002917DDDFED147AAF
:100DA000013920EE270AFBD1002A18DDDFED117A88
:100DB000013A20EE270AFBD17047EDD0F6EE007A1B
:100DC000013020EE270AFBD10029E7DCECD0DFED73
:100DD0000A7A013120EE270AFBD1002AE6DC05D091
:100DE000DFED067A013220EE270AFBD1704700BF03
:100DF0007C9C873F1C9E803FBAA1713F4DC57E3FC2
:100E0000804B9FED817AD3ED046AF4EE476AF1EEF0
:100E100010FAF6EE007AF5EEC06A08BFB0EE677A17
:100E2000F1EE10FA00F1A780F0EE477AF5EEC06A15
:100E3000F1EE10FA05DDF6EE007A37EEE67A76EEA0
:100E4000A77AF7EE086A27EE267A67EEA67AF7EE1B
:100E5000006AB4EE667AF1EE10FA1B7EF4EE667A62
:100E6000C8BFB0EE667AF1EE10FAC8BFF0EE667A4F
:100E7000012B59D0022B45D0032B53D19FED636A30
:100E8000B4EEC67AF1EE10FAF0EE676ADFED5E7A44
:100E900041DC9FED5F6AB4EEC67AF1EE10FA00F124
:100EA000A380DFED595AB0EE676AF0EE477AFEEEA6
:100EB000C87A17EE903AF0EE657A9FED547A554A6B
:100EC000F4EEC77AF1EE10FA936160DD524BDFED7C
:100ED0004F7AD361B4EEE76AF1EE10FA42DD4E4B81
:100EE000DFED4A7A1362F4EEE76AF1EE10FA36DCCF
:100EF000DFED477AF4EEE76AF1EE10FA50D5474B92
:100F0000536270479FED416ADFED3F6AB4EEC67AE7
:100F1000F1EE10FABDDD3F4A3F4B9361B0EE676AD8
:100F20000023D4E7DFED387ADFED386AB4EEE67AF5
:100F3000F1EE10FA44DDF4EEE67A364A364B936170
:100F4000F1EE10FADFED306A1FDDD361B0EE666AB4
:100F5000F0EE467AFEEEC87A17EE903AC0E72E4BD6
:100F600053627047DFED2A7AB4EEE76AF1EE10FAC9
:100F7000EED52A4BB4E71BDD36EEA77AB0EE666AF3
:100F8000F6EE007A77EEC67A50E7B0EE666A9FED2D
:100F9000207AF4EEC77AF1EE10FA2CD51F4B96E7C3
:100FA000F0EE667AFEEEC87A17EE903A536270471A
:100FB000B1EE666A37EEE67AC8BFB0EE666ADFE782
:100FC000DFED136AB4EEE67AF1EE10FA05D5DFED47
:100FD0000E6A124BB0EE666A6FE7F0EE675ADFED0D
:100FE0000A7AF0EE676A5EE70A4A0C4B9361B0EE4C
:100FF000676ADFED057AB0EE677ABEEEC87A17EE63
:10100000103A64E7ECDB01200000000000FEFF4620
:1010100000FEFFC60CFC01200000FF7F00000180E5
:10102000244B70B5244CB3F81C11B3F90821234BA1
:10103000A18603EB8202A38ED2ED007A204A002122
:101040009BB284F8361020EE270A52F8206013B1C4
:10105000012384F83630B5EEC00A47F6FF73F1EE8F
:1010600010FA238324D4DFED177AB4EEE70AF1EE09
:1010700010FA12DD144BA36200252B46A26A4FF032
:10108000FF30002124F07AFF042349104FEA30009A
:101090002064E5612663A38570BD9FED0C7AF6EEB2
:1010A000007AE0EE077AFCEEE77A17EE903AE2E794
:1010B0000023E0E7ECDB0120380B02206CC90200C2
:1010C00030DA0120A655AC45C0FFFF3F4B243E4817
:1010D000244B70B5244CB3F8FC10B3F9D820234B43
:1010E000A18603EB8202A38ED2ED007A204A002172
:1010F0009BB284F8361020EE270A52F8206013B114
:10110000012384F83630B5EEC00A43F6FF73F1EEE2
:1011100010FA238324D4DFED177AB4EEE70AF1EE58
:1011200010FA12DD144BA36200252B46A26A4FF081
:10113000FF30002124F022FF042349104FEA300041
:101140002064E5612663A38570BD9FED0C7AF6EE01
:10115000007AE0EE077AFCEEE77A17EE903AE2E7E3
:101160000023E0E7ECDB0120A81802206CC9020094
:1011700030DA0120A655AC45C0FFFF3F4B243E4866
:10118000244B70B5244CB3F8CC10B3F99420234B06
:10119000A18603EB8202A38ED2ED007A204A0021C1
:1011A0009BB284F8361020EE270A52F8206013B163
:1011B000012384F83630B5EEC00A43F6FF73F1EE32
:1011C00010FA238324D4DFED177AB4EEE70AF1EEA8
:1011D00010FA12DD144BA36200252B46A26A4FF0D1
:1011E000FF30002124F0CAFE042349104FEA3000EA
:1011F0002064E5612663A38570BD9FED0C7AF6EE51
:10120000007AE0EE077AFCEEE77A17EE903AE2E732
:101210000023E0E7ECDB0120880D02206CC902000E
:1012200030DA0120A655AC45C0FFFF3F4B243E48B5
:1012300038B51B4D2B688342044603D8AA88134453
:1012400098421DD9002118201DF020FBAB68144ADC
:101250009C4203D3928913449C4216D90021192041
:101260001DF014FB2B690E4A9C4203D3928A13444F
:101270009C420FD900211A20BDE838401DF006BB62
:10128000012118201DF002FBE0E7012119201DF0CB
:10129000FDFAE7E701211A20BDE838401DF0F6BA53
:1012A00068DA01202DE9F041C74C94F888312DED22
:1012B000028B002B00F0CC8094F9FE70C34E052FFA
:1012C00000F3F781D6E9000124F0FAFCDFEDC07AE3
:1012D000C04DC14BB4F81C11B4F90821A98607EE22
:1012E000100A87EE278A03EB8202BC49AB8E31F9E4
:1012F00027809BB2002185F83610D2ED007A68EE87
:10130000277A13B1012385F83630F5EEC07A47F617
:10131000FF73F1EE10FA2B8300F178829FEDB07A23
:10132000F4EEC77AF1EE10FA40F35682AD4BAB62A1
:101330000027AA6A3B464FF0FF30002124F01EFE32
:10134000EF6194F9CE70A5F82C8049104FEA300077
:10135000052F28649C4D00F3CE81A34DB4F8FC10FA
:101360009D4BB4F9D820A98603EB8202AB8E9B4932
:10137000D2ED007A31F9278000209BB285F8360043
:1013800068EE277A13B1012385F83630F5EEC07A7E
:1013900043F6FF73F1EE10FA2B8300F135829FEDD7
:1013A000907AF4EEC77AF1EE10FA40F30A828D4B90
:1013B000AB620027AA6A3B464FF0FF30002124F0C1
:1013C000DDFD49104FEA3000EF612864A5F82C805C
:1013D00094F988507C4F052D00F3A881834EB4F812
:1013E000CC30B4F994007C4AB38602EB8002B38E11
:1013F0007A4992ED000A31F9257000209BB286F8F7
:10140000360028EE008A13B1012386F83630B5EE97
:10141000C08A43F6FF73F1EE10FA338300F1FA81CC
:10142000DFED6F7AB4EEE78AF1EE10FA40F3BE8199
:101430006C4BB3620025B26A2B464FF0FF3000219F
:1014400024F09CFD49104FEA30003064F561B78507
:1014500094F889315C4A002B48D092F988505B4E51
:10146000052D00F37281D6E9000124F029FC9FEDDF
:10147000587A5E4E584BB4F8CC10B4F99420B1862B
:1014800006EE900AC6EE877A03EB8202B38E5349CA
:1014900000209BB286F8360031F9257092ED007A73
:1014A00067EE877A002B40F06581F5EEC07A43F64F
:1014B000FF73F1EE10FA338300F1AA819FED487AB1
:1014C000F4EEC77AF1EE10FA40F36581454BB36252
:1014D0000025B26A2B464FF0FF30002124F04EFD6C
:1014E00049104FEA30003064F561B78594F88A31CD
:1014F000354D002B49D095F9CE70344E052F00F3B1
:10150000C380D6E9000124F0DBFB9FED317A364D34
:10151000314BB4F8FC10B4F9D820A98606EE900A35
:10152000C6EE877A03EB8202AB8E2C4900209BB279
:1015300085F8360031F9277092ED007A67EE877AE8
:1015400013B1012385F83630F5EEC07A43F6FF7308
:10155000F1EE10FA2B8300F155819FED217AF4EE24
:10156000C77AF1EE10FA40F342811E4BAB620026BF
:10157000AA6A33464FF0FF30002124F0FFFC4910E7
:101580004FEA30002864EE61AF8594F88B310E4D40
:10159000002B5ED095F9FE700C4E052F5DDCD6E970
:1015A000000124F08DFB9FED0A7A0A4D0A4BB4F836
:1015B0001C11B4F90821A98606EE900AC6EE877AB6
:1015C00003EB820214E000BFECDB0120B8D901205C
:1015D00000007042380B02206CC90200C8CD020026
:1015E000A655AC45C0FFFF3FA8180220880D022079
:1015F000AB8E934900209BB285F8360031F9276005
:1016000092ED007A67EE877A13B1012385F83630C0
:10161000F5EEC07A47F6FF73F1EE10FA2B8300F176
:10162000B8809FED887AF4EEC77AF1EE10FA40F3B5
:10163000A580854BAB620024AA6A23464FF0FF3099
:10164000002124F09BFC49104FEA30002864EC6133
:10165000AE85BDEC028BBDE8F081D6E9000124F037
:101660002FFB063F07EE100ADFED787ABFB238464F
:1016700087EE270AFFF7D4FC95F9FE70052F8EDD63
:10168000BDEC028BBDE8F081D6E9000124F018FB27
:10169000063F07EE100ADFED6D7ABFB2384687EEDF
:1016A000270AFFF715FD95F9CE70052F3FF76DAFAF
:1016B00027E7D6E9000124F003FBDFED648A07EE9B
:1016C000900A063FBFB2384687EEA80AFFF7A8FC8B
:1016D00094F9FE70052F7FF7F5ADD6E9000124F0EF
:1016E000EFFA94F9CE705A4D07EE900A052F87EE67
:1016F000A88A7FF732AEB81F80B2B0EE480AFFF773
:10170000E7FC95F9CE70052FD6E9000140F38480FF
:1017100024F0D6FA94F98850DFED4C7A4C4F07EE5E
:10172000100A052D87EE278A7FF758AEA81F80B2D2
:10173000B0EE480AFFF724FD97F98850052D74DDB7
:1017400097F88931002B3FF4D1AED6E9000124F09F
:10175000B7FA063D07EE100ADFED3C7AADB2284637
:1017600087EE270AFFF70CFD94F98850052D3FF707
:10177000BDAE78E6012386F8363096E6DFED356AB1
:10178000B6EE007AA7EEA67AFCEEC77A17EE903A8C
:1017900050E700234EE7DFED2F6AB6EE007AA7EEA2
:1017A000A67AFCEEC77A17EE903A90E69FED297A7A
:1017B000F6EE007AE8EE077AFCEEE77A17EE903A5A
:1017C00037E6DFED246AB6EE007AA7EEA67AFCEEE5
:1017D000C77A17EE903AEBE5DFED1E6AB6EE007AB7
:1017E000A7EEA67AFCEEC77A17EE903A9FE5DFEDFA
:1017F000196AB6EE007AA7EEA67AFCEEC77A17EE63
:10180000903AB3E60023B1E60023D1E500238EE54C
:1018100000235CE600230CE624F052FADFED0B7A9D
:1018200007EE100A87EE278A97E5D6E9000124F033
:1018300047FADFED067A07EE100A87EE278ACDE534
:10184000C8CD0200A655AC45C0FFFF3F0000704266
:10185000ECDB01204B243E482DE9F843DFF80C82F5
:10186000714FD8E9002306466BA1D1E9000124F0AD
:1018700059F800226D4B3D6823F078FD00226B4B38
:1018800023F026FF24F0FCF9751BA84208D2684912
:10189000684B0020012208601A603E60BDE8F883B2
:1018A000644B1C6804F10109B9F1020FC3F8009000
:1018B000F3DD5F4A13681D441560013CB5FBF4F489
:1018C000204623F08FFE5C4D02460B4654A1D1E921
:1018D000000124F027F8594B95F8D82195F858E2E3
:1018E00095F8595207EE904A03EB820203EB8E0300
:1018F000F8EE676A93ED006AD2ED007A504A514BD8
:10190000146086EEA77A504AC8E90001C6EE867ACE
:10191000BDEEC77AFDEEE77A82ED007AC3ED007A7C
:10192000FDB1F8EE677A9FED496ADFED496A87EE0F
:10193000867AB4EEE67AF1EE10FA30DAB5EEC07AD5
:10194000F1EE10FA55D501210022424D287EC30741
:101950002CD4EB8B2A62994240F0010088BFE983C6
:10196000287619F0030F3C490DD13C4B3C4AA3FBB0
:1019700006039B0932200B6093609081FFF792FC75
:101980003E60BDE8F883354B0A68A3FB040402EB14
:101990009414A3FB0623B4EB931FE6D9EEE744F6B9
:1019A0008D5202F17F01C9090131CEE72B6A9A42BB
:1019B00005D9EB8B2A62994288BFE983D1E7294692
:1019C000002341F8202F9E4640FA03F212F0010F47
:1019D00003F1010306D00A687F32D209013296452D
:1019E00038BF9646082B01F10401EDD1A5F81EE0A1
:1019F000B7E7DFED1C6A1C4AF6EE007AE7EE267ABE
:101A0000FCEEE77A17EE903A934288BF4FF450719C
:101A10009BD817EE902AC4E700000000004CED4070
:101A200000000000389C8C41A40F022000408F4031
:101A300038180220CC170220ECDB01206CC9020010
:101A400054DA0120D015022008FD012000007A445C
:101A50000000E1441CFD01209CFB0120D34D6210DD
:101A600068DA012079783041809F0100B8D90120DF
:101A7000BD4B1B78002B40F02D812DE9F0412DED61
:101A8000048BBA4BBA4C1A6894F8443182B0019274
:101A9000019E13B1B74B00221A6094F83C3113B188
:101AA000B54B00221A6094F8883194ED418A94ED88
:101AB000359AD4ED248A53B1B04BD3E9000124F018
:101AC000FFF808EE100A08EE900A09EE100A94F8E2
:101AD000893133B1A94BD3E9000124F0F1F808EEC4
:101AE000900A94F88A3133B1A44BD3E9000124F071
:101AF000E7F809EE100A94F88B3133B19F4BD3E924
:101B0000000124F0DDF808EE100A94F81031984D29
:101B1000002B42D095F9FE00052800F3FD809FEDD3
:101B2000987A984DB4F81C11974BB4F90821A986FE
:101B3000C8EE077A03EB8202AB8E944900279BB272
:101B400085F8367031F9208092ED007A67EE877A59
:101B5000002B40F0FD80F5EEC07A47F6FF73F1EE02
:101B600010FA2B8300F147819FED897AF4EEC77A52
:101B7000F1EE10FA40F33081864BAB620027AA6A7F
:101B80003B464FF0FF30002124F0F8F949104FEAAE
:101B900030002864EF61A5F82C8094F8F030744D83
:101BA000002B42D095F9CE00052800F3C3809FEDAD
:101BB000747A794DB4F8FC10734BB4F9D820A98627
:101BC000C9EE077A03EB8202AB8E704900279BB205
:101BD00085F8367031F9208092ED007A67EE877AC9
:101BE000002B40F0BD80F5EEC07A43F6FF73F1EEB6
:101BF00010FA2B8300F1FB809FED657AF4EEC77A33
:101C0000F1EE10FA40F3DD80624BAB620027AA6A66
:101C10003B464FF0FF30002124F0B0F949104FEA65
:101C200030002864EF61A5F82C8094F8C030504D46
:101C3000002B40D095F98800052860DC9FED507A94
:101C4000564DB4F8CC10504BB4F99420A986C8EE88
:101C5000877A03EB8202AB8E4C4900279BB285F852
:101C6000367031F9208092ED007A67EE877A002B8A
:101C700072D1F5EEC07A43F6FF73F1EE10FA2B83C2
:101C800000F1B7809FED427AF4EEC77AF1EE10FAD8
:101C900040F38C803F4BAB620027AA6A3B464FF073
:101CA000FF30002124F06AF949104FEA300028641F
:101CB000EF61A5F82C803A4D2B7863B994F8443144
:101CC0001BB9384B1E6132229A8202B0BDEC048BE4
:101CD000BDE8F08170471CF0F3FDFFF7BDFD314B0F
:101CE00094F844211E6132219982002AEDD12A788C
:101CF000002AE7D002B0BDEC048BBDE8F0819FED77
:101D0000200A063880B288EE800AFFF739FA95F982
:101D100088000528CFDC91E79FED190A063880B2CC
:101D200088EE000AFFF77CF995F9FE0005283FF7D9
:101D300034AFF4E69FED120A063880B289EE000A4D
:101D4000FFF7C6F995F9CE0005283FF76EAF2EE7ED
:101D5000012385F83630FEE6012385F8363088E722
:101D6000012385F836303EE76CED0120DC1C0220B3
:101D7000ECDB0120D80B0220800D0220B8D9012015
:101D800000007042380B02206CC90200C8CD02006E
:101D9000A655AC45C0FFFF3FA8180220880D0220C1
:101DA0003018022068DA01204B243E485FED026AB9
:101DB000B6EE007AA7EEA67AFCEEC77A17EE903A56
:101DC00069E75FED076AB6EE007AA7EEA67AFCEE49
:101DD000C77A17EE903A18E75FED0D6AB6EE007A13
:101DE000A7EEA67AFCEEC77A17EE903AC5E6002376
:101DF0000BE700234FE70023BFE600BFFFFFFFFF15
:101E000007EE900A002808B5F8EEE77A1DDB47D008
:101E10009FED277AC7EE876A16EE900A23F004FC3E
:101E20009FED211B41EC100B20F0EAFA002251EC4F
:101E3000100B204B23F04CFC00221F4B23F096FA92
:101E400023F03EFF00EE100A08BDF5EEC07AF1EE79
:101E500010FA9FED177AD8BFF1EE677AC7EE876A5E
:101E600016EE900A23F0E0FB9FED0F1B41EC100BE8
:101E700020F0C6FA002053EC102B0F4923F074FA1F
:101E800023F01EFF9FED0D7ADFED0D7A00EE100AB4
:101E9000B4EE470AF1EE10FA48BFB0EE670A08BD8B
:101EA000B7EE000A08BD00BF0000000000001440AB
:101EB00000007042000049400000F03F9A99193E2E
:101EC000CDCC4C3D2DE9F04FDE4CDF4A94F8593231
:101ED0002DED048B012183B005461160002B00F02D
:101EE0000987DA4B9FEDDA6AD3ED007ADFEDD96A24
:101EF000F8EE677A87EE867AB4EEE67AF1EE10FABB
:101F0000C0F2E08544F68D53D34F387E3B6210F02B
:101F1000010000D1012040B20023D04938761E468E
:101F200050FA03F203F1010306D00A687F32D209A6
:101F30000132964238BF1646082B01F10401EFD159
:101F4000D4ED8A7A9FEDD87AFE83F4EEC77AF1EE6B
:101F500010FA00F3A3869FEDD37AF4EEC77AF1EE80
:101F600010FA01F12D82B0EE677ABEEEC87A17EE54
:101F7000103AD4ED8B7A9FEDCC7AB94AF4EEC77A59
:101F8000F1EE10FA936100F385869FEDC67AF4EEC8
:101F9000C77AF1EE10FA5BBFB0EE677ABEEEC87A90
:101FA000B04B17EE103A9FEDC07AD361F4EEC77ACA
:101FB000F1EE10FA01F3A8839FEDBA7AF4EEC77A36
:101FC000F1EE10FA01F11782B0EE677ABEEEC87A30
:101FD00017EE103AD4ED8C7A9FEDB37A1362F4EEDB
:101FE000C77AF1EE10FA00F352869FEDAE7AF4EE66
:101FF000C77AF1EE10FA01F1FB81B0EE677ABEEE1E
:10200000C87A17EE103AD4ED8D7A9FEDA77A964AEA
:10201000F4EEC77AF1EE10FA936100F335869FED86
:10202000A17AF4EEC77AF1EE10FA01F1EE81B0EE8A
:10203000677ABEEEC87A17EE103A94F9D601D361EA
:10204000FFF7DEFE894B94F9D70183ED000AFFF715
:10205000D7FE874A94F8D43182ED000A13B1854B3C
:1020600001221A7094F8D53113B1834B01221A70F2
:10207000D4ED807AB3EE047AF4EEC77AF1EE10FA7A
:1020800000F113869FED7D7AF4EEC77AF1EE10FA37
:1020900041F3E0817A4A7B4ED4ED817A9FED7A7AE2
:1020A0007A4BF4EEC77AF1EE10FA9E61DA6100F134
:1020B000E885B3EE097AF4EEC77AF1EE10FA01F38F
:1020C000A181F7EE006A86EEA77AF0EE477AFEEE7F
:1020D000C17A17EE902AD4ED827A5A62B3EE047A6E
:1020E000F4EEC77AF1EE10FA00F1DB859FED637A2A
:1020F000F4EEC77AF1EE10FA41F39681604A614E30
:10210000D4ED837A9FED607A614BF4EEC77AF1EEFD
:1021100010FA9E61DA6100F1A585B3EE097AF4EE5A
:10212000C77AF1EE10FA01F33281F7EE006A86EE1B
:10213000A77AF0EE477AFEEEC17A17EE902A5A623D
:10214000002D40F09485D4ED577A9FED577AF4EE48
:10215000C77AF1EE10FA00F382859FED527AF4EE21
:10216000C77AF1EE10FA01F13481B0EE677ABEEE73
:10217000C87A17EE103AD4ED587A9FED4B7A454D58
:10218000F4EEC77AF1EE10FAAB6100F365859FEDCE
:10219000457AF4EEC77AF1EE10FA01F11781B0EE4C
:1021A000677ABEEEC87A17EE103AD4ED5E7A9FEDEC
:1021B0003E7A3948F4EEC77AF1EE10FA836100F303
:1021C00048859FED387AF4EEC77AF1EE10FA01F106
:1021D0000C81B0EE677ABEEEC87A17EE103AD4EDF5
:1021E0005F7A9FED317A6B62F4EEC77AF1EE10FA06
:1021F00000F32C859FED2B7AF4EEC77AF1EE10FAFE
:1022000001F1F080B0EE677ABEEEC87A17EE103AB0
:10221000D4ED5A7A9FED247A2049214A4362F4EEA4
:10222000C77A0023F1EE10FA8B61EB61C3612B6278
:102230000362936100F307859FED1A7AF4EEC77A83
:1022400034E000BFECDB012088E100E0D015022083
:1022500000007A440000E1441CFD01203CFD012007
:10226000A0FA012000000180ACEC0120E8DB012095
:102270003CDB0120480C0220700E02201EDE894546
:10228000008C3C4B00BE6C503333333F7C0B022040
:10229000880A02209814022024ED0120C81302208D
:1022A000CC0F022000FEFFC600FEFF46F1EE10FA42
:1022B00001F19580B0EE677ABEEEC87A17EE103A5B
:1022C000D4ED5C7A1FED087ACB61F4EEC77AF1EEBB
:1022D00010FA00F3B5841FED0D7AF4EEC77AF1EE33
:1022E00010FA01F17980B0EE677ABEEEC87A17EE87
:1022F000103AD4ED5B7A1FED147A0B62F4EEC77AD4
:10230000F1EE10FA00F399841FED1A7AF4EEC77A11
:10231000F1EE10FA01F18580B0EE677ABEEEC87A70
:1023200017EE103AD4ED5D7A1FED217AD361F4EE09
:10233000C77AF1EE10FA00F37D841FED267AF4EEF1
:10234000C77AF1EE10FA01F16980B0EE677ABEEE5D
:10235000C87A17EE103AD4ED607A1FED2D7A136229
:10236000F4EEC77AF1EE10FA00F361841FED337AD0
:10237000F4EEC77AF1EE10FA01F14D80B0EE677A13
:10238000BEEEC87A17EE103AD4ED617A1FED3A7AB4
:102390004B62F4EEC77AF1EE10FA00F345841FEDBC
:1023A0003F7AF4EEC77AF1EE10FA01F13180B0EE27
:1023B000677ABEEEC87A17EE103AD4ED597A1FED5F
:1023C000467A5362F4EEC77AF1EE10FA00F32984EC
:1023D0001FED4C7AF4EEC77AF1EE10FA00F1ED87BA
:1023E000B0EE677ABEEEC87A17EE103AD4ED567AA0
:1023F0001FED537ADD4A77EEA77A9361F4EEC77A40
:10240000F1EE10FA00F30B849FEDD97AF4EEC77A5F
:10241000F1EE10FA00F1CE87B0EE677ABEEEC87A20
:1024200017EE103AD4ED527A9FEDD27A1362F4EEA1
:10243000C77AF1EE10FA00F3EB83DFEDCD6ACE4AF6
:10244000F4EEE67AF1EE10FA00F1A787B0EE676AD3
:10245000BEEEC86AF4EEC77AF1EE10FA16EE103A44
:1024600082ED066A00F3A187F4EEE67AC349F1EE45
:1024700010FA48BF0B469FEDBF7AD361F4EEC77ADE
:10248000F1EE10FA00F3C8839FEDB97AF4EEC77A43
:10249000F1EE10FA5BBFB0EE677ABEEEC87AB74BCA
:1024A00017EE103A9FEDB37A1362F4EEC77AF1EEAD
:1024B00010FA01F326819FEDAE7AF4EEC77AF1EEC1
:1024C00010FA00F16787B0EE677ABEEEC87A17EEB1
:1024D000103AD4ED217A9FEDA77AA9495362FDEE17
:1024E000E77A4BF23333F8EEE77A8B61F4EEC77A92
:1024F000F1EE10FACB6100F389839FED9D7AF4EE43
:10250000C77AF1EE10FA00F15E87B0EE677ABEEEA0
:10251000C87A17EE103AD4ED4E7A9A4A0B62B7EEAB
:10252000007AF4EEC77A4FF48033F1EE10FA1362BA
:10253000536240F30987944B72B6944A0021D361E9
:10254000117662B6D4ED437AB7EE007AF4EEC77A2C
:10255000F1EE10FA40F3E6868B4B72B68C4A0026F9
:10256000D361167662B672B68A4A8B4B1676D36101
:1025700062B672B6894AD361167662B672B6884A76
:10258000D361167662B672B6864AD361167662B6A3
:102590009FED850A94F9422094F9411094F9400086
:1025A000824DFEF7F3FB824B94F9522094F95110BF
:1025B00094F95000F0EE409A9FED7E0AC3ED009A28
:1025C000FEF7E4FB7C4B94F9622094F9611094F9D6
:1025D0006000F0EE408A9FED790AC3ED008AFEF7B5
:1025E000D5FB774B94F9722094F9711094F970002F
:1025F000B0EE409A9FED710A83ED009AFEF7C6FB9C
:1026000094F938306F4A052BB0EE408A82ED000A0B
:1026100040F3B682DFF8C8916B4A6C4FC9F82820A6
:10262000063B99B243F6FF70334657F82170A9F87C
:102630001800D9F82820664D4FF0FF30002123F014
:102640009DFCD4ED0F7AC9F83070F5EEC07A5FEAE0
:10265000610B4FEA300A0423F1EE10FAC9F840A0EA
:10266000C9F81C60A9F82C3000F1CE82B7EE007AD0
:10267000F4EEC77AF1EE10FA40F3DA874FF0004338
:10268000D4ED197A94F95A20C9F82030F5EEC07AC1
:10269000F1EE10FA35F9228000F12386B7EE007AC8
:1026A000F4EEC77AF1EE10FA4A4F40F3B58747F6D9
:1026B000FF73B5EEC09AF1EE10FA3B8300F11A8673
:1026C000DFED457AB4EEE79AF1EE10FA40F3F182CD
:1026D000424BBB620026BA6A33464FF0FF300021FE
:1026E00023F04CFCD4ED177AFE61F5EEC07A4B1066
:1026F0004FEA3002F1EE10FA3A64A7F82C8000F1AC
:10270000ED85B7EE007AF4EEC77AF1EE10FA40F3F9
:10271000CD874FF00043D4ED157A94F94A203B62FF
:10272000F5EEC07AF1EE10FA35F922A000F1C88575
:10273000B7EE007AF4EEC77AF1EE10FADFF8A48073
:1027400040F3A88747F6FF73F5EEC08AF1EE10FA62
:10275000A8F8183000F1BF85DFED1F7AF4EEE78AA4
:10276000F1EE10FA40F3BB823EE000BFE816022013
:1027700000FEFFC600FEFF460C0E02200000018096
:10278000F8170220D4FB01200000FF7F5CFB012032
:102790006CFA0120A0FB01200080FF3F18150220E9
:1027A000DC0A02208415022000002043ECDB01201B
:1027B000C80F02200000A043400C02200000A042ED
:1027C000B80E02209819022080391B05C4D90120B7
:1027D000C8CD0200340D0220A655AC45C0FFFF3F16
:1027E000BC0E0220000F0220D84BC8F8283000266B
:1027F000D8F8282033464FF0FF30002123F0BEFBED
:10280000D4ED137AC8F81C60F5EEC07A4B104FEA8D
:102810003002F1EE10FAC8F84020A8F82CA000F120
:102820004C85B7EE007AF4EEC77AF1EE10FA40F379
:1028300027874FF00043D4ED1D7A94F96A20C8F839
:102840002030F5EEC07AF1EE10FA35F922A000F151
:102850005485B7EE007AF4EEC77AF1EE10FABC4E6A
:1028600040F3028747F6FF73B5EEC08AF1EE10FA27
:10287000338300F14B85DFEDB77AB4EEE78AF1EEF2
:1028800010FA40F32182B14BB3624FF0000BB26AF1
:102890005B464FF0FF30002123F070FBD4ED1B7A34
:1028A000C6F81CB0F5EEC07A4B104FEA3002F1EEDC
:1028B00010FA3264A6F82CA000F13185B7EE007A48
:1028C000F4EEC77AF1EE10FA40F3C4864FF00043FD
:1028D000B4F94820336207EE902AF8EEE77AF5EE75
:1028E000C07AF1EE10FA00F118859FED9B7AF4EEB4
:1028F000C77AF1EE10FA40F31E8177EEC77AF4EE54
:10290000C77AF1EE10FAC0F21681B4F9583007EE2A
:10291000903AF8EEE77AF5EEC07AF1EE10FA00F1AF
:10292000FA849FED8D7AF4EEC77AF1EE10FA40F357
:10293000F78077EEC77AF4EEC77AF1EE10FAC0F2BC
:10294000EF80B4F9683007EE903AF8EEE77AF5EEEA
:10295000C07AF1EE10FA00F1DC849FED7F7AF4EE9C
:10296000C77AF1EE10FA40F3D18077EEC77AF4EE31
:10297000C77AF1EE10FAC0F2C980B4F9783007EEE8
:10298000903AF8EEE77AF5EEC07AF1EE10FA00F13F
:1029900092849FED717AF4EEC77AF1EE10FA40F36B
:1029A0009A8077EEC77AF4EEC77AF1EE10FAC0F2A9
:1029B0009280D4ED1F7AF5EEC07AF1EE10FA00F1B4
:1029C0009B80B7EE007AF4EEC77AF1EE10FA40F38E
:1029D00039864FF4803294F880306049102B8A6138
:1029E00000F29280002B08BF01235D4A94F9810018
:1029F000DFED5C6A5C4902EB800292ED007A0B76B7
:102A0000C6EE877AB6EE007A77EE877AFDEEE77A41
:102A100017EE903A002B40F34B84402BA8BF402385
:102A2000DBB294F9FE004B760528504E00F37F810F
:102A30009FED4F7AD4ED416A4E4EB4F81C114E4BC7
:102A4000B4F90821B186C6EE877A03EB8202B38E11
:102A500035F9207000219BB286F8361092ED007A8D
:102A600067EE877A002B40F05A85F5EEC07A47F67C
:102A7000FF73F1EE10FA338300F13B869FED357A58
:102A8000F4EEC77AF1EE10FA40F356852F4BB3629D
:102A90004FF00008B26A43464FF0FF30002123F0A8
:102AA0006DFAD4ED407AC6F81C80F5EEC07A4B1072
:102AB0004FEA3002F1EE10FA3264B78540F14F81EF
:102AC000002356E1B5EEC07AF1EE10FA40F1178519
:102AD0000023FFF719BA9FED297A67EE877AFCEE9B
:102AE000E77A17EE903AD4ED1F7AF361F5EEC07AEB
:102AF000F1EE10FA7FF565AF94F8803017490022A7
:102B0000102B8A617FF66EAF10236EE79FED1B7A64
:102B100067EE877AFCEEE77A17EE903AFB612CE7D6
:102B20009FED167A67EE877AFCEEE77A17EE903A19
:102B3000C8F81C3005E79FED117A67EE877AFCEE46
:102B4000E77A17EE903AC9F81C30DEE6C0FFFF3F87
:102B500054140220A655AC450000B443941602203C
:102B60000CE40200A6552C4690100220ECDB01205C
:102B700000007042380B02206CC90200610BB64A9B
:102B8000D5ED117AF5EEC07AF1EE10FA00F19A85E2
:102B9000F7EE006AF4EEE67AF1EE10FADFF8FC9256
:102BA00040F3F48447F6FF76A74DA9F81860F5EED8
:102BB000C09AF1EE10FA55F8237000F19785DFED19
:102BC000A37AF4EEE79AF1EE10FA40F38385A04B76
:102BD000C9F828300026D9F8282033464FF0FF30B6
:102BE000002123F0CBF9D4ED0F7AC9F81C60F5EE83
:102BF000C07A4B104FEA3002F1EE10FAC9F84020CB
:102C0000A9F82C707FF532AD002339E5914B82E4B1
:102C1000914A904B9361D3618E4B136259E48D4B73
:102C200000E48C4BFFF7E2BB8A4BFFF7C6BB894B36
:102C3000FFF7AABB874BFFF78EBB864BFFF772BB34
:102C4000844BFFF756BB834BFFF73ABB814BFFF733
:102C5000DFBA804BFFF7C3BA7E4BFFF7A6BA7D4BB6
:102C6000FFF789BA7D4A5A62002D3FF46CAA02230D
:102C700028227B499FED7B0A7B4816F029FFFFF74E
:102C800062BA764AFFF727BA724BFFF7D6B9714B93
:102C9000FFF7B9B96F4BD361FFF79CB96D4BFFF7E5
:102CA00068B9724A724EFFF72BBA704A704EFFF73E
:102CB000F3B99FED707AF6EE007AE9EE077AFCEE52
:102CC000E77A17EE903A04E59FED6A7AF6EE007A1D
:102CD000E8EE077AFCEEE77A17EE903AD4E59FED3E
:102CE000657AF6EE007AE8EE877AFCEEE77A17EE80
:102CF000903A7AE5B4F82032DFED5F6A5F4F07EE75
:102D0000103AB8EE477AF6EE007AE7EE267A5C4B98
:102D1000387EFCEEE77A17EE902A9A4228BF1A46D0
:102D200010F001003A627FF4F6A8FFF7F3B896EDD1
:102D3000417ADFED547A063880B287EE270AFEF733
:102D40006FF996F9FE0005287FF772AE4E4ED4ED6E
:102D5000407AF5EEC07AF1EE10FA3FF5B1AEB7EE7B
:102D6000007AF4EEC77AF1EE10FA40F31B844FF0CC
:102D70000043B4F90A21336207EE902AF8EEE77AAD
:102D8000F5EEC07AF1EE10FA00F18C829FED3F7AF9
:102D9000F4EEC77AF1EE10FA40F3848077EEC77A4A
:102DA000F4EEC77AF1EE10FA7CDB94F9CE00384EDF
:102DB000052800F386809FED337AD4ED356A354ED1
:102DC000B4F8FC10344BB4F9D820B186C6EE877A3B
:102DD00003EB8202B38E35F9207000219BB286F896
:102DE000361092ED007A67EE877A002B40F0A083D0
:102DF000F5EEC07A43F6FF73F1EE10FA338300F17B
:102E00007D849FED127AF4EEC77AF1EE10FA40F36A
:102E10009F830F4BB3624FF00008B26A43464FF0F6
:102E2000FF30002123F0AAF8D4ED347AC6F81C80D4
:102E3000F5EEC07A4B104FEA3002F1EE10FA326430
:102E4000B78555D500235DE0C8CD0200A655AC4539
:102E5000C0FFFF3F0000FF7F0C0E022000B76D5B3C
:102E600008DA01209A99193E38EE0120E3555D00F9
:102E7000EC555D004B243E48797830411CFD012023
:102E8000809F010000007042380B02200000B44314
:102E9000ECDB0120A81802206CC90200BC0E022045
:102EA000610BB64A1FED027A67EE877AFCEEE77A8D
:102EB00017EE903A94F9CE00F3610528D94E7FF7CA
:102EC0007AAF96ED357ADFEDD87A063880B287EEA4
:102ED000270AFEF7FDF896F9CE0005287FF76BAFBD
:102EE000D24ED4ED347AF5EEC07AF1EE10FAA9D4D0
:102EF000B7EE007AF4EEC77AF1EE10FA40F35C8395
:102F00004FF00043B4F9DA20336207EE902AF8EE6E
:102F1000E77AF5EEC07AF1EE10FA00F1C1819FED8B
:102F2000C47AF4EEC77AF1EE10FA52DD77EEC77A82
:102F3000F4EEC77AF1EE10FA4BDB94F98800B94E43
:102F4000052854DC9FEDB87AD4ED246AB94EB4F864
:102F5000CC30B4F99410B84AB386C6EE877A02EB47
:102F60008102B38E35F9205000219BB286F83610CD
:102F700092ED007A67EE877A002B40F0D582F5EE6D
:102F8000C07A43F6FF73F1EE10FA338300F1B48395
:102F90009FEDAA7AF4EEC77AF1EE10FA40F3E382DD
:102FA000A74BB3620027B26A3B464FF0FF300021C7
:102FB00022F0E4FFD4ED237AF761F5EEC07A4B10EE
:102FC0004FEA3002F1EE10FA3264B58525D50023C0
:102FD0002DE09FED9C7A67EE877AFCEEE77A17EE9C
:102FE000903A94F98800F36105288E4EAADD96ED9B
:102FF000247ADFED8D7A063880B287EE270AFEF755
:10300000BFF896F9880005289CDD8A4ED4ED237A16
:10301000F5EEC07AF1EE10FAD9D4B7EE007AF4EEFC
:10302000C77AF1EE10FA40F3D0824FF00043B4F9C2
:103030009620336207EE902AF8EEE77AF5EEC07A32
:10304000F1EE10FA00F130819FED797AF4EEC77A53
:10305000F1EE10FA40F3D78077EEC77AF4EEC77A34
:10306000F1EE10FAC0F2CF80D4ED017AF8EEE77AF3
:10307000B3EE047AF4EEC77AF1EE10FA00F10381B0
:103080009FED717AF4EEC77AF1EE10FA40F30D82FB
:103090006E4B6F4DD4ED027A9FED6E7A6E4AF4EE70
:1030A000C77AF1EE10FA9561D36100F1B880B3EE02
:1030B000097AF4EEC77AF1EE10FA00F39F81F7EE89
:1030C000006A86EEA77AF0EE477AFEEEC17A17EE36
:1030D000903AD4ED037A5362F5EEC07AF1EE10FA2D
:1030E00000F1E4809FED5D7AF4EEC77AF1EE10FA1C
:1030F00000F3CC80B0EE677ABEEECA7A17EE103AD3
:10310000D4ED077A1362F8EEE77AB3EE047AF4EEC0
:10311000C77AF1EE10FA00F1B3809FED4B7AF4EE2E
:10312000C77AF1EE10FA40F3AB81484B484DD4ED2D
:10313000087A9FED487A4A49F4EEC77AF1EE10FA20
:103140008D61CB6169D4B3EE097AF4EEC77AF1EE02
:1031500010FA00F35581F7EE006A86EEA77AF0EEDA
:10316000477AFEEEC17A17EE903AD4ED097A4B62B7
:10317000F5EEC07AF1EE10FA00F1A2829FED377AF7
:10318000F4EEC77AF1EE10FA40F3838046F6FF734F
:10319000D4ED057A334A0B62B7EE007AF4EEC77AC3
:1031A0000023F1EE10FA9361D3611362536240F38E
:1031B000DD802D4B72B62D49CA690B629A4200F030
:1031C000858282FAA3F0EFF300852D01284E00F1ED
:1031D0008181C51786FB0060C5EBA000002800F0C8
:1031E0008781486201230B7662B694F81022214849
:1031F000114616F06DFE204B01221A6003B0BDECA3
:10320000048BBDE8F08F9FED0F7A67EE877AFCEEB6
:10321000E77A17EE903AF36126E7184BA5E7174BCC
:1032200057E700BFECDB012000007042A818022025
:103230000000B443880D02206CC90200A655AC45BD
:10324000C0FFFF3F610BB64A1EDE8945008C3C4B38
:1032500000BE6C503333333F041002202EFFDF409A
:10326000401002200CFC01200000FF7F34FB0120F5
:10327000E9A28B2E8C17022008E100E000B76D5BFD
:10328000D64BD74D53E7D54BD54D03E746F6FF73E5
:1032900036E7B0EE677ABEEECA7A17EE103A77E7F5
:1032A00000239EE6002305E60023B4E7002327E77A
:1032B0000123FFF7B6BB002315E43346FFF7BBBA83
:1032C000DFF84883F5EEC08A0023F1EE10FAA8F883
:1032D00018307FF541AA0023FFF787BA3346FFF77E
:1032E0001ABAC04FB5EEC09A0023F1EE10FA3B8334
:1032F0007FF5E6A90023FFF7ECB9BB4EB5EEC08A17
:103300000023F1EE10FA33837FF5B5AA0023FFF70F
:10331000BBBA002302E400230AE4002313E45B4663
:10332000FFF7D6BABFEE007AF4EEC77AF1EE10FAE4
:1033300000F124819FEDAD7A67EE877AFDEEE77AA2
:1033400017EE903AFFF709B9BFEE007AF4EEC77AAC
:10335000F1EE10FA00F117819FEDA47A67EE877AFB
:10336000FDEEE77A17EE903AFFF7E6B8BFEE007A87
:10337000F4EEC77AF1EE10FA00F103819FED9B7A2B
:1033800067EE877AFDEEE77A17EE903A12E7984AF1
:10339000FEF7D5BE974BFFF79CB8F4EEC77A954B76
:1033A0009361F1EE10FA7FF766A8934BD361136235
:1033B000FFF78FB88F4BFFF735B88E4BFFF716B876
:1033C0008C4BFEF7D6BD8B4BFFF7A5B8894BFEF7AC
:1033D000ECBE884BFEF7CFBE864BFEF78ABF854B0F
:1033E000FEF76EBF834BFEF713BF824BFEF7F7BEAF
:1033F000804BFEF708BE7F4BFEF7ECBD7C4B68E6CA
:103400007B4BB2E67A4AFEF766BE7A4BFEF715BEF4
:10341000784BFEF7D2BF774BFEF7B6BF754BFEF782
:103420009ABF744BFEF77EBF9FED740A9FED798AB9
:1034300027EE800A60EE087AFDEEE77A17EE906AD2
:103440001EF09EFE20EE080AFDEEC07A17EE902ACE
:10345000FEF756BE9FED690A9FED6E8A27EE800A41
:1034600060EE087AFDEEE77A17EE906A1EF088FEAD
:1034700020EE080AFDEEC07A17EE902AFEF70CBE89
:103480009FED5E0A9FED638A27EE800A60EE087A60
:10349000FDEEE77A17EE905A1EF072FE20EE080A53
:1034A000FDEEC07A17EE903A41E69FED540A9FED8B
:1034B000598A27EE800A60EE087AFDEEE77A17EE69
:1034C000905A1EF05DFE20EE080AFDEEC07A17EE5F
:1034D000903ADFE586FB0307DD1786FB0206D0176F
:1034E000C5EBA705C0EBA600281A00287FF479AE2B
:1034F0009A42ACBF4FF0FF3301234B6272E6DFED1F
:10350000406A404AF6EE007AE7EE267AFCEEE77A69
:1035100017EE903A934228BF1346FEF7F5BC0123FD
:1035200086F83630FFF7A1BA012386F8363026E553
:10353000012386F836305BE4DFED336AB6EE007ABD
:10354000A7EEA67AFCEEC77A17EE903AFFF79FBA7D
:10355000DFED2D6AB6EE007AA7EEA67AFCEEC77A0A
:1035600017EE903A56E4DFED286AB6EE007AA7EE41
:10357000A67AFCEEC77A17EE903A12E51D4BFEF7DD
:10358000ECBF1C4B16E61B4BFEF7D6BFDFED206AE7
:1035900067EEA67AFDEEE77ACDED017ABDF904601B
:1035A000FFF702BB9FED1B7A67EE877AFCEEE77AA6
:1035B00017EE903AFFF7DDBB9FED167A67EE877A3C
:1035C000FCEEE77A17EE903A9CE49FED127A67EEF4
:1035D000877AFCEEE77A17EE903A28E5E3555D002E
:1035E000EC555D00340D02205414022000FEFF4E05
:1035F000285C8F02000001800000FF7F46561539CD
:1036000079783041809F01004B243E48000F022012
:1036100000FEFF460000004F1FED037A67EE877A39
:10362000FDEEE77ACDED017ABDF90430FFF741B840
:103630001FED087A67EE877AFCEEE77A17EE903A8C
:10364000FFF71EB8B0EE677ABEEEC87A17EE102A02
:10365000FFF7C1B91FED117A67EE877AFCEEE77AC2
:1036600017EE903AFFF734B91FED177A67EE877AB5
:10367000FDEEE77ACDED017ABDF90430FFF7F4B83D
:103680001FED1C7A67EE877AFCEEE77A17EE903A28
:10369000FFF7D1B81FED227A67EE877AFDEEE77A61
:1036A000CDED017ABDF90430FFF74EB81FED277A52
:1036B00067EE877AFCEEE77A17EE903AFFF72BB8C1
:1036C000002365E5DFF85090FFF76EBA00230B7614
:1036D00062B68AE5DFED0E6AF6EE007AE9EEA67ACA
:1036E000FCEEE77A17EE903AFFF772BA0023FFF785
:1036F0006FBA0023FFF7CBB9002352E40023FFF792
:1037000089BB044BFEF7E5BE024BFEF763BC00BF6E
:103710004B243E480000FF7FBC0E0220F8B510EE9F
:10372000100A2DED028BB0EE408A21F07DFF9FED57
:10373000487A484C484B94F8586294F8D821474F3F
:10374000474DC7EE087A03EB820203EB8603454E32
:103750002D78C7E9000144494448D2ED005A93ED61
:10376000006AFCEEE77AF8EE676AC6ED007A86EE4C
:10377000A57AC6EE867ABDEEC77AFDEEE77A80EDD1
:10378000007AC1ED007A0DBB94F85932F3B1F8EE2E
:10379000677A9FED376ADFED376A87EE867AB4EE97
:1037A000E67AF1EE10FA17DAB5EEC07AF1EE10FA19
:1037B0003BD50123304C207EC20714D4E28B256216
:1037C0009A4240F0010038BFE3832076BDEC028BC3
:1037D000BDE8F840FDF766BD44F68D5505F17F0361
:1037E000DB090133E6E7226A954205D9E28B2562BF
:1037F0009A4238BFE383E9E72146002341F8205F7E
:103800001D4640FA03F212F0010F03F1010306D046
:103810000A687F32D2090132954238BF1546082B1B
:1038200001F10401EDD1E583D0E7DFED146A144D19
:10383000F6EE007AE7EE267AFCEEE77A17EE903A9B
:10384000AB4288BF4FF45073B4D81D46C6E700BFE3
:10385000C0E1644CECDB01206CC90200B8D9012046
:10386000840D022054DA0120D015022008FD012029
:1038700000007A440000E1441CFD012079783041C9
:10388000809F0100FFFFFFFF2DE970482DED028BA7
:1038900083B001380C46BDF92810FE2800F23F81A4
:1038A000DFE810F0851045103410F70FBC0F810FC2
:1038B000460FDA0E6A112F11B711C510100CD50B77
:1038C0009A0B7E0BD80DD30DEC0D8C0D450D0D0D07
:1038D000D80CBF0C4A0E150E0E0EF10DB30E820E53
:1038E000C50EEE0269135113FF0028135A14511428
:1038F000261100113212F2112704FD03F503ED0326
:10390000E503B203E8129A126F1266128E14851440
:103910008B0C4B0C3A140F14AE11A511CD13991347
:10392000D6136302E605C405F8057305A6059E05D2
:1039300042066805370507051E05D704CD04C304F4
:1039400092043D048007780746071407E206B00694
:103950007E06760639081408D007B2079F086B0860
:10396000E4029D02BF0AA70A840A5A0A030BD90A75
:103970002A0A1F0A590B350A2D0B8E036A034003CE
:1039800023031C035B0950098F0936092B09FF0823
:10399000D308A708FC09C809B209A709D109BD09BC
:1039A00059021002D901900159013D013D013D012B
:1039B0003D013D013D013D013D013D013D013D0117
:1039C0003D013D013D013D013D013D013D013D0107
:1039D0003D013D013D013D013D013D013D013D01F7
:1039E0003D013D013D013D013D013D013D013D01E7
:1039F0003D013D013D013D013D013D013D013D01D7
:103A00003D013D013D013D013D013D013D013D01C6
:103A10003D013D013D013D013D013D013D013D01B6
:103A20003D013D013D013D013D013D013D013D01A6
:103A30003D013D013D013D013D013D013D013D0196
:103A40003D013D013D013D013D013D013D013D0186
:103A50003D013D013D013D013D013D013D013D0176
:103A60003D013D013D013D013D013D013D013D0166
:103A70003D013D013D013D013D013D013D013D0156
:103A80003D013D013D013D013D013D013D013D0146
:103A90003D013D013D013D013D013D013D013D0136
:103AA0004201DF4A9FEDDF7A4FF47A7303FB04F49F
:103AB00082FB04232344E417C4EBA31407EE904ACB
:103AC000F8EEE77AC7EE876A16EE900A21F0ACFDB1
:103AD0009FEDCF1B41EC100B1EF092FC51EC100B34
:103AE00022F0EEF807EE900ACF4BF5EEC07AF1EE39
:103AF00010FA586402F1BB84B7EE007AF4EEC77A8C
:103B0000CA4AF1EE10FAB2F9183042F3F585002BEB
:103B100042F0EA8547F6FF730021D161138303B0B9
:103B2000BDEC028BBDE87088531EC149DD2202FB4B
:103B300003F381FB03121A44DB17C3EB62231E332A
:103B400000EE103AB8EEC00A03B0BDEC028BBDE83F
:103B50007048FFF7E3BD07EE904A9FEDB67AB64A8C
:103B60009FEDB06ADFEDB56AAF49F8EEE77A45F64A
:103B7000E26367EE877AFDEEE77A17EE900A03FBC1
:103B800000F382FB0302DB17C3EBA22303F2C6237D
:103B900007EE903AF8EEE77A87EE867AB4EEE67AA8
:103BA000F1EE10FA81ED837A02F1F683F3EE097AF1
:103BB000B4EEE77AF1EE10FA42F34C85A04AA14B3D
:103BC0005A62ACE7964A9FED977A4FF47A7303FBFB
:103BD00004F482FB04232344E417C4EBA31407EE8C
:103BE000904AF8EEE77AC7EE876A16EE900A21F05F
:103BF0001BFD9FED871B41EC100B1EF001FC86A303
:103C0000D3E9002351EC100B21F062FD8E4B002212
:103C100021F0ACFB22F054F807EE900AFDEEE77AB3
:103C2000B3EE047AF8EEE77A7F4BF4EEC77AF1EE62
:103C300010FAC3ED827A02F1AB839FED847AF4EE41
:103C4000C77AF1EE10FA42F3EF84814A814C7D4B42
:103C50009C61DA6163E707EE904A9FED767A7649D8
:103C60009FED706ADFED756A6F48F8EEE77A45F60A
:103C7000E26267EE877AFDEEE77A17EE903A02FB92
:103C800003F381FB0312DB17C3EBA22303F2C6236A
:103C900007EE903AF8EEE77A87EE867AB4EEE67AA7
:103CA000F1EE10FA80ED817A02F16F83F3EE097A7A
:103CB000B4EEE77AF1EE10FA42F3F084604A664B14
:103CC0005A622CE7564A9FED577A4FF47A7303FBFA
:103CD00004F482FB04232344E417C4EBA31407EE8B
:103CE000904AF8EEE77AC7EE876A16EE900A21F05E
:103CF0009BFC9FED471B41EC100B1EF081FB46A384
:103D0000D3E9002351EC100B21F0E2FC4E4B0022D2
:103D100021F02CFB21F0D4FF07EE900AFDEEE77AAC
:103D2000B3EE047AF8EEE77A3F4BF4EEC77AF1EEA1
:103D300010FAC3ED807A02F149839FED447AF4EEE4
:103D4000C77AF1EE10FA42F30484414A414C424BE7
:103D50009C61DA61E3E6012C3FF7E1AE002C42F012
:103D6000B385314B83F88B41D9E62D4A9FED2D7AEF
:103D70004FF47A7303FB04F482FB04232344E41717
:103D8000C4EBA31407EE904AF8EEE77AC7EE876A11
:103D900016EE900A21F048FC9FED1D1B41EC100B24
:103DA0001EF02EFB51EC100B21F08AFF9FED2B7AB9
:103DB0001D4B07EE900AF4EEC77AF1EE10FAC3F845
:103DC000840002F3EC829FED267AF4EEC77AF1EEDE
:103DD00010FA42F19A83234B234A13629FE64FF471
:103DE0007A730F4ADFED136A0F4903FB04F482FB79
:103DF00004232344E417C4EBA31407EE904AF8EE1F
:103E0000E77A87EEA67A81ED327A88E6AFF3008012
:103E10000000000000001440000000000088D340B3
:103E20000904028100007A44ECDB0120BC0E022070
:103E3000030820800000C8429B29A4143333333F79
:103E4000285C8F02880A0220000024401EDE89457B
:103E5000008C3C4B00BE6C507C0B022000FEFF46E9
:103E600000FEFFC600000180F8170220012C3FF77A
:103E700056AE002C42F0F384C74B83F8C0404EE6A8
:103E8000C64A9FEDC77AC44D4FF47A7303FB04F41E
:103E900082FB04232344E417C4EBA31407EE904AE7
:103EA000F8EEE77AC7EE876A16EE900A21F0BCFBBF
:103EB0009FEDB31B41EC100B1EF0A2FA0022B94B90
:103EC00051EC100B21F004FC21F0FAFE07EE900AF1
:103ED000FDEEE77A17EE900A288620E6142C3FF7CD
:103EE0001EAEAD4BA3F8D84019E6AB4A92F8883124
:103EF000002B7FF414AE92F88A31002B7FF40FAEC2
:103F00004FF4B473A54903FB04F481FB0413234469
:103F1000E417C4EBA31407EE904AF8EEE77AC2ED7B
:103F2000357AFCE540F2DE339C4ADFED9D6A9A4922
:103F300003FB04F482FB04232344E417C4EBA31320
:103F40000A3307EE903AF8EEE77A87EEA67AB5EEF6
:103F5000C07AF1EE10FA81ED347A02F14884F7EE7E
:103F6000007AB4EEE77AF1EE10FA42F311854FF0E1
:103F700000438D4A1362D2E50B2C3FF7D0AD64B2FB
:103F8000854D052C85F8CE4002F3508495ED357AA9
:103F9000DFED867AB5F9D860854B8649B5F8FC2007
:103FA00031F924108048C7EE270A03EB8603D3EDCE
:103FB000007AB6EE000A60EEA70AFCF7E7FDAEE570
:103FC0004FF4FA63754ADFED766A734903FB04F434
:103FD00082FB04232344E417C4EBA313A3F57A73F1
:103FE00007EE903AF8EEE77A91F8AC3087EEA67AD1
:103FF00081ED2F7A002B3FF492AD81ED2C7A81ED8B
:104000002D7A81ED2E7A8AE54FF4B473634A6249C2
:1040100003FB04F482FB04232344E417C4EBA3133F
:104020001BB207EE903AF8EEE77AA1F85830F5EEB9
:10403000C07AF1EE10FA02F1C2839FED5F7AF4EEDE
:10404000C77AF1EE10FA07DD77EEC77AF4EEC77A99
:10405000F1EE10FABFF663AD9FED587A67EE877AFE
:10406000FCEEE77A17EE903A554AD36157E5182CE3
:104070003FF755AD484B0C3C83F852404FE5182CA8
:104080003FF74DAD444B0C3C83F8514047E5082CBD
:104090003FF745AD404B033C83F850403FE540F2CD
:1040A000DE333E4ADFED3E6A3B4903FB04F482FB0C
:1040B00004232344E417C4EBA3130A3307EE903A16
:1040C000F8EEE77A87EEA67AB5EEC07AF1EE10FA4E
:1040D00081ED137A02F17983F7EE007AB4EEE77A94
:1040E000F1EE10FA42F338844FF00043344A136281
:1040F00015E5052C3FF713AD64B2274B052C83F86B
:104100004A403FF70CAD2F4A2A49D2ED000A31F957
:10411000241093ED150A2A48FCF7E0FCFFE41F4A3F
:104120009FED1F7A1C4D4FF47A7303FB04F482FB5E
:1041300004232344E417C4EBA31407EE904AF8EEDB
:10414000E77AC7EE876A16EE900A21F06DFA9FEDC6
:104150000E1B41EC100B1EF053F90DA3D3E9002305
:1041600051EC100B21F0B4FA21F0AAFD07EE900AF1
:10417000FDEEE77A17EE900A431CA5F82031CEE455
:104180000000000000001440000000000000084093
:10419000000000008087C340ECDB0120090402819D
:1041A00000007A440040BF40A8180220000070427E
:1041B0006CC90200C8CD02000000B443610BB64ACE
:1041C000000F0220400C0220C94A9FEDCA7ACA4D56
:1041D0004FF47A7303FB04F482FB04232344E417B3
:1041E000C4EBA31407EE904AF8EEE77AC7EE876AAD
:1041F00016EE900A21F018FA9FEDB91B41EC100B56
:104200001EF0FEF8B8A3D3E9002351EC100B21F007
:104210005FFA21F055FD07EE900AFDEEE77A17EE02
:10422000900A431CA5F81E3179E4012C3FF777ACC6
:10423000002C42F02883B04B83F844416FE4012CFA
:104240003FF76DAC002C42F07F83AB4B83F83C41D1
:1042500065E44FF4FA63A64A9FEDA66AA64903FBFC
:1042600004F382FB03021A44DB17C3EBA213A3F58A
:104270007A7307EE903AF8EEE77AF7EE006A87EE87
:10428000867AB4EEE67AF1EE10FA81ED4E7A42F3D8
:10429000FC809A4B72B69A4A0021D361117662B6BD
:1042A0003F3C012C3FF63BAC72B6D161117662B651
:1042B00035E44FF47A738E4ADFED926A8E4903FB40
:1042C00004F482FB04232344E417C4EBA31407EE95
:1042D000904AF8EEE77A87EEA67A81ED457A1EE4F9
:1042E0004FF4FA63824ADFED836A834903FB04F4E7
:1042F00082FB04232344E417C4EBA313A3F57A73CE
:1043000007EE903AF8EEE77A87EEA67A81ED467AE4
:1043100005E44FF4FA63764A9FED766A764903FB2B
:1043200004F382FB03021A44DB17C3EBA213A3F5C9
:104330007A7307EE903AF8EEE77AF7EE006A87EEC6
:10434000867AB4EEE67AF1EE10FA81ED437A42F322
:10435000AE806A4B72B66C4A0021D361117662B6A8
:104360003F3C012C3FF6DBAB72B6D161117662B6F1
:10437000FFF7D5BB012C3FF7D2AB002C42F09C825B
:104380005D4B83F81041FFF7CABB40F2DE33584A59
:10439000DFED586A584903FB04F482FB04232344ED
:1043A000E417C4EBA3130A3307EE903AF8EEE77A6A
:1043B00087EEA67AB5EEC07AF1EE10FA81ED407A7A
:1043C00002F10082F7EE007AB4EEE77AF1EE10FA2D
:1043D00042F3FC824FF000434C4A1362FFF79FBB4D
:1043E000142C3FF79CAB444BA3F80841FFF797BB55
:1043F000414A92F88831002B7FF491AB92F88B31CF
:10440000002B7FF48CAB4FF4B473394903FB04F4F5
:1044100081FB04132344E417C4EBA31407EE904A72
:10442000F8EEE77AC2ED417AFFF779BB062C3FF749
:1044300076AB374BDFED376A2F4A64B203EB840368
:1044400093ED007A82F88140C6EE877AB6EE007A64
:1044500077EE877AFDEEE77A17EE903A002B42F37B
:10446000C982402BA8BF40232B4A5376FFF757BB86
:104470000F2C3FF754AB631CDBB21F4A102B82F8A2
:10448000803002F22781002B08BF0123224A1376D5
:10449000FFF745BB0B2C3FF742AB64B2164D052C22
:1044A00085F8FE4002F3F78195ED417ADFED1B7A46
:1044B000B5F908611A4B1B49B5F81C2131F92410D4
:1044C0001248C7EE270A03EB8603D3ED007AB7EE56
:1044D000000A60EEA70AFCF759FBFFF720BB00BFFC
:1044E0000000000000000840000000008087C3407A
:1044F0000904028100007A44ECDB01200000FF7F08
:104500005CFB01200000C8426CFA0120380B02203D
:104510000CE40200A6552C469010022000007042C8
:104520006CC90200C8CD02004FF4B473E04AE149FF
:1045300003FB04F482FB04232344E417C4EBA3131A
:104540001BB207EE903AF8EEE77AA1F80A31F5EEE1
:10455000C07AF1EE10FA02F12C819FEDD77AF4EED9
:10456000C77AF1EE10FA07DD77EEC77AF4EEC77A74
:10457000F1EE10FABFF6D3AA9FEDD07A67EE877AF4
:10458000FCEEE77A17EE903ACD4AD361FFF7C7BA4F
:10459000642C3FF7C4AAC74BA3F83241FFF7BFBA58
:1045A000C34A9FEDC87AC34D4FF47A7303FB04F4FA
:1045B00082FB04232344E417C4EBA31407EE904AC0
:1045C000F8EEE77AC7EE876A16EE900A21F02CF82B
:1045D0009FEDB31B41EC100B1DF012FFB2A3D3E90A
:1045E000002351EC100B21F073F821F069FB07EE6A
:1045F000900AFDEEE77A17EE900A431CA5F83031D9
:10460000FFF78DBAAA4A9FEDAF7AAA4D4FF47A739D
:1046100003FB04F482FB04232344E417C4EBA31438
:1046200007EE904AF8EEE77AC7EE876A16EE900A30
:1046300020F0FAFF9FED9A1B41EC100B1DF0E0FEFD
:1046400099A3D3E9002351EC100B21F041F821F09C
:1046500037FB07EE900AFDEEE77A17EE900A431C4F
:10466000A5F82E31FFF75BBA914A9FED967A914DEE
:104670004FF47A7303FB04F482FB04232344E4170E
:10468000C4EBA31407EE904AF8EEE77AC7EE876A08
:1046900016EE900A20F0C8FF9FED811B41EC100B35
:1046A0001DF0AEFE80A3D3E9002351EC100B21F0E6
:1046B0000FF821F005FB07EE900AFDEEE77A17EE02
:1046C000900A431CA5F82C31FFF729BA784A9FEDD0
:1046D0007D7A784D4FF47A7303FB04F482FB042354
:1046E0002344E417C4EBA31407EE904AF8EEE77AEC
:1046F000C7EE876A16EE900A20F096FF9FED681BC2
:1047000041EC100B1DF07CFE67A3D3E9002351ECB4
:10471000100B20F0DDFF21F0D3FA07EE900AFDEE3A
:10472000E77A17EE900A431CA5F82A31FFF7F7B98C
:104730005F4A9FED647A5F4D4FF47A7303FB04F494
:1047400082FB04232344E417C4EBA31407EE904A2E
:10475000F8EEE77AC7EE876A16EE900A20F064FF5B
:104760009FED4F1B41EC100B1DF04AFE4EA3D3E909
:10477000002351EC100B20F0ABFF21F0A1FA07EE63
:10478000900AFDEEE77A17EE900A431CA5F8263151
:10479000FFF7C5B9642C3FF7C2A9464BA3F82441E3
:1047A000FFF7BDB9424A9FED477A424D4FF47A7305
:1047B00003FB04F482FB04232344E417C4EBA31497
:1047C00007EE904AF8EEE77AC7EE876A16EE900A8F
:1047D00020F02AFF9FED321B41EC100B1DF010FE64
:1047E00031A3D3E9002351EC100B20F071FF21F02D
:1047F00067FA07EE900AFDEEE77A17EE900A431C7F
:10480000A5F82231FFF78BB92A4A92F88831002B9C
:104810007FF485A992F88931002B7FF480A94FF4A9
:10482000B473234903FB04F481FB04132344E4170A
:10483000C4EBA31407EE904AF8EEE77AC2ED247AAF
:10484000FFF76DB940F2DE33194ADFED1E6A1949F0
:1048500003FB04F482FB04232344E417C4EBA313F7
:104860000A3307EE903AF8EEE77A87EEA67AB5EECD
:10487000C07AF1EE10FA81ED237A01F1B587F7EEF7
:10488000007AB4EEE77AF1EE10FA42F377804FF057
:1048900000430D4A1362FFF742B900BFAFF3008037
:1048A0000000000000000840000000008087C340B6
:1048B00009040281ECDB01200000B443610BB64A1D
:1048C000380B022000007A44880D02200B2C3FF7A1
:1048D00026A964B2E64D052C85F8884001F395873A
:1048E00095ED247ADFEDE37AB5F99460E24BE34984
:1048F000B5F8CC2031F92410E148C7EE270A03EBC4
:104900008603D3ED007AB6EE000A60EEA70AFCF744
:104910003DF9FFF704B9DB4A9FEDDB7AD44D4FF444
:104920007A7303FB04F482FB04232344E417C4EBEF
:10493000A31407EE904AF8EEE77AC7EE876A16EE00
:10494000900A20F071FE9FEDC61B41EC100B1DF08C
:1049500057FDC5A3D3E9002351EC100B20F0B8FE9E
:1049600021F0AEF907EE900AFDEEE77A17EE900A15
:10497000431CA5F83431FFF7D2B84FF4B473C14AE1
:10498000BB4903FB04F482FB04232344E417C4EB78
:10499000A3131BB207EE903AF8EEE77AA1F896302F
:1049A000F5EEC07AF1EE10FA01F12C879FEDB77A9F
:1049B000F4EEC77AF1EE10FA07DD77EEC77AF4EE7F
:1049C000C77AF1EE10FABFF6AAA89FEDB17A67EEAA
:1049D000877AFCEEE77A17EE903AA94AD361FFF79F
:1049E0009EB8142C3FF79BA8A14BA3F89440FFF767
:1049F00096B84FF4FA63A34ADFEDA36A9C4D03FB1C
:104A000004F482FB04232344E417C4EBA313A3F5AB
:104A10007A7307EE903AF8EEE77A95F8DC3087EE95
:104A2000A67A85ED3A7A002B3FF479A8B5EEC07AE4
:104A3000F1EE10FA85ED387A85ED397AD8BFB1EE0E
:104A4000477A85ED3B7AFFF76AB84FF4FA638D4AEF
:104A5000DFED8D6A864D03FB04F482FB04232344BF
:104A6000E417C4EBA313A3F57A7307EE903AF8EEBC
:104A7000E77A95F8DC3087EEA67A85ED397A002B57
:104A80003FF44DA8B5EEC07AF1EE10FA85ED387A14
:104A900085ED3A7AD8BFB1EE477A85ED3B7AFFF7DC
:104AA0003EB84FF4FA63774ADFED776A704D03FB47
:104AB00004F482FB04232344E417C4EBA313A3F5FB
:104AC0007A7307EE903AF8EEE77A95F8DC3087EEE5
:104AD000A67A85ED387A002B3FF421A8B5EEC07A8E
:104AE000F1EE10FA85ED397A85ED3A7AD8BFB1EE5C
:104AF000477A85ED3B7AFFF712B8012C3FF70FA8F4
:104B0000002C41F0F1865A4B83F8DC40FFF707B8E0
:104B10004FF4FA635B4ADFED5C6A554903FB04F42A
:104B200082FB04232344E417C4EBA313A3F57A7395
:104B300007EE903AF8EEE77A87EEA67A81ED3D7AB5
:104B4000FEF7EDBF012C3EF7EAAF002C41F0C48622
:104B5000474B83F8F040FEF7E2BF4FF4B473494A85
:104B6000434903FB04F482FB04232344E417C4EB0E
:104B7000A3131BB207EE903AF8EEE77AA1F8DA3009
:104B8000F5EEC07AF1EE10FA01F12B869FED3F7A37
:104B9000F4EEC77AF1EE10FA07DD77EEC77AF4EE9D
:104BA000C77AF1EE10FABEF6BAAF9FED397A67EE2A
:104BB000877AFCEEE77A17EE903A364AD361FEF731
:104BC000AEBF4FF47A732F4ADFED336A284903FBF7
:104BD00004F482FB04232344E417C4EBA31407EE7C
:104BE000904AF8EEE77A87EEA67A81ED3E7AFEF7F4
:104BF00096BF012C3EF793AF002C41F07D861C4BF5
:104C000083F88841FEF78BBF012C3EF788AF002C5C
:104C100041F08A86164B83F84C41FEF780BF012C89
:104C20003EF77DAF002C41F06F86114B83F88A412F
:104C3000FEF775BF172C3EF772AF0D4B013483F8AA
:104C40002841FEF76CBF012C3EF769AF002C41F004
:104C50006386074B83F88941FEF761BFAFF300809D
:104C60000000000000000840000000008087C340F2
:104C7000ECDB0120000070426CC90200C8CD0200CC
:104C8000880D02200904028100007A440000B44328
:104C9000610BB64AA81802200000C8424FF47A738C
:104CA000C94ADFEDCA6ACA4903FB04F482FB042344
:104CB0002344E417C4EBA31407EE904AF8EEE77A16
:104CC00091F8DC3087EEA67A81ED3B7A002B3EF43A
:104CD00026AF81ED387A81ED397A81ED3A7AFEF7A7
:104CE0001EBF012C3EF71BAF002C41F02586B84BB0
:104CF00083F8AC40FEF713BF012C3EF710AF002C39
:104D000041F0A585B24B83F89840FEF708BF4FF4F9
:104D1000FA63AD4ADFEDAD6AAD4903FB04F482FBF3
:104D200004232344E417C4EBA313A3F57A7307EE1B
:104D3000903AF8EEE77A91F8AC3087EEA67A81EDFA
:104D40002D7A002B3EF4EBAE81ED2C7A81ED2E7A9C
:104D500081ED2F7AFEF7E3BE4FF47A739A4ADFEDC6
:104D60009B6A9B4D03FB04F482FB04232344E4175A
:104D7000C4EBA31407EE904AF8EEE77A95F8983062
:104D800087EEA67A85ED287A002B3EF4C8AEB5EE04
:104D9000C07AF1EE10FA85ED277A85ED297AD8BF31
:104DA000B1EE477A85ED2A7AFEF7B9BE4FF47A73F1
:104DB000854ADFED866A864903FB04F482FB0423FF
:104DC0002344E417C4EBA31407EE904AF8EEE77A05
:104DD00091F8983087EEA67A81ED277A002B3EF481
:104DE0009EAE81ED287A81ED297A81ED2A7AFEF74F
:104DF00096BE4FF47A73744ADFED746A744903FB0C
:104E000004F482FB04232344E417C4EBA31407EE49
:104E1000904AF8EEE77A87EEA67A81ED507AFEF7AF
:104E20007EBE4FF4FA63684ADFED686A684903FBA7
:104E300004F482FB04232344E417C4EBA313A3F577
:104E40007A7307EE903AF8EEE77A87EEA67A81ED6C
:104E5000317AFEF764BE4FF47A735B4ADFED5B6A2A
:104E60005B4D03FB04F482FB04232344E417C4EBEF
:104E7000A31407EE904AF8EEE77A95F8983087EE9B
:104E8000A67A85ED2A7A002B3EF449AEB5EEC07ABB
:104E9000F1EE10FA85ED277A85ED287AD8BFB1EECC
:104EA000477A85ED297AFEF73ABE4FF47A73464A7F
:104EB000DFED466A464D03FB04F482FB04232344E2
:104EC000E417C4EBA31407EE904AF8EEE77A95F8DE
:104ED000983087EEA67A85ED297A002B3EF41FAE36
:104EE000B5EEC07AF1EE10FA85ED277A85ED287AD5
:104EF000D8BFB1EE477A85ED2A7AFEF710BE4FF49F
:104F0000FA63314ADFED316A314D03FB04F482FB71
:104F100004232344E417C4EBA313A3F57A7307EE29
:104F2000903AF8EEE77A95F8AC3087EEA67A85ED00
:104F30002E7A002B3EF4F3ADB5EEC07AF1EE10FA06
:104F400085ED2C7A85ED2D7AD8BFB1EE477A85EDC7
:104F50002F7AFEF7E4BD4FF4FA631B4ADFED1B6ABC
:104F60001B4903FB04F482FB04232344E417C4EB32
:104F7000A313A3F57A7307EE903AF8EEE77A91F867
:104F8000AC3087EEA67A81ED2C7A002B3EF4C7ADCB
:104F900081ED2D7A81ED2E7A81ED2F7AFEF7BFBD5E
:104FA000042C3EF7BCAD0B4D2B7813B1002C01F057
:104FB0003582074BE4B283F8D441002C01F03982EA
:104FC00001232B70FEF7ABBD0904028100007A4477
:104FD000ECDB0120480C0220E34A9FEDE47A4FF419
:104FE0007A7303FB04F482FB04232344E417C4EB29
:104FF000A31407EE904AF8EEE77AC7EE876A16EE3A
:10500000900A20F011FB9FEDD61B41EC100B1DF018
:10501000F7F951EC100B20F053FE9FEDD57AD54BEC
:1050200007EE900AF4EEC77AF1EE10FAC3F87401B5
:1050300001F3BB819FEDD07AF4EEC77AF1EE10FA5E
:1050400041F17782CD4BCE4A1362FEF768BDC64A66
:105050009FEDC67A4FF47A7303FB04F482FB0423BA
:105060002344E417C4EBA31407EE904AF8EEE77A62
:10507000C7EE876A16EE900A20F0D6FA9FEDB81BAD
:1050800041EC100B1DF0BCF951EC100B20F018FE98
:105090009FEDB77AB74B07EE900AF4EEC77AF1EEC0
:1050A00010FAC3F8700101F38C819FEDB37AF4EE2E
:1050B000C77AF1EE10FA41F16A82B04BB14A13623D
:1050C000FEF72DBDA84A9FEDA97A4FF47A7303FB32
:1050D00004F482FB04232344E417C4EBA31407EE77
:1050E000904AF8EEE77AC7EE876A16EE900A20F04B
:1050F0009BFA9FED9B1B41EC100B1DF081F951ECCD
:10510000100B20F0DDFD9FED9A7A9A4B07EE900A86
:10511000F4EEC77AF1EE10FAC3F86C0101F32681C0
:105120009FED957AF4EEC77AF1EE10FA41F1C28262
:10513000924B934AD361FEF7F2BC8B4A9FED8B7A78
:105140004FF47A7303FB04F482FB04232344E41733
:10515000C4EBA31407EE904AF8EEE77AC7EE876A2D
:1051600016EE900A20F060FA9FED7D1B41EC100BCB
:105170001DF046F951EC100B20F0A2FD07EE900A4D
:105180007C4BF5EEC07AF1EE10FA586701F17681AA
:10519000B7EE007AF4EEC77A7B4AF1EE10FAB2F974
:1051A000183041F3EE82002B41F0978247F6FF73EF
:1051B0000021D1611383FEF7B2BC4FF4B4736A4A85
:1051C0006C4903FB04F482FB04232344E417C4EB7F
:1051D000A3131BB207EE903AF8EEE77AA1F8683015
:1051E000F5EEC07AF1EE10FA01F1F4829FED677AE4
:1051F000F4EEC77AF1EE10FA07DD77EEC77AF4EE37
:10520000C77AF1EE10FABEF68AAC9FED617A67EECE
:10521000877AFCEEE77A17EE903A5E4AD361FEF7A2
:105220007EBC544D95F8D531002B01F05680C4EB6F
:10523000041314EBC30348BF7F33DB113C3B5BB269
:10524000184685F8D731FCF7DBFD534B83ED000A98
:10525000FEF765BC07EE904A9FED507A5049DFEDAE
:10526000436A4448F8EEE77A41F6593267EE877AA6
:10527000FDEEE77A17EE903A02FB03F381FB03128F
:10528000DB17C3EB223307EE903AF8EEE77A87EEAE
:10529000A67AB5EEC07AF1EE10FA80ED037A01F14C
:1052A000AE82DFED407AB4EEE77AF1EE10FA41F328
:1052B0009E8046F6FF733C4A1362FEF730BC07EE51
:1052C000904A9FED367A39499FED286ADFED386ABA
:1052D0002848F8EEE77A45F6E26267EE877AFDEE57
:1052E000E77A17EE903A02FB03F381FB0312DB1718
:1052F000C3EBA22303F2C62307EE903AF8EEE77A57
:1053000087EE867AB4EEE67AF1EE10FA80ED027A54
:1053100001F15480F3EE097AB4EEE77AF1EE10FA77
:1053200041F3DF80234A204B5A62FEF7F8BB114D50
:1053300095F8D431002B00F07987C4EB041314EBFB
:10534000C30348BF7F33DB113C3B5BB2184685F893
:10535000D631FCF755FD184B83ED000AFEF7DFBB95
:1053600000000000000014400904028100007A449B
:1053700000FEFF46ECDB012000FEFFC600000180BE
:10538000CC0F0220C8130220541402200000B443A2
:10539000610BB64A340D02203CDB01200000C842FC
:1053A00065FC8E522EFFDF40041002209B29A414BE
:1053B0003333333F285C8F02E8DB0120C84A9FED7E
:1053C000C97A4FF47A7303FB04F482FB0423234469
:1053D000E417C4EBA31407EE904AF8EEE77AC7EEA1
:1053E000876A16EE900A20F01FF99FEDB91B41EC79
:1053F000100B1DF005F851EC100B20F061FCBA4ABF
:10540000BA4BDFEDBB6A9FEDBB6ADFEDBB5AC2F85A
:10541000480107EE100A03F11001B4EEE67AF1EE4E
:1054200010FA00F3D686B4EEC67AF1EE10FA00F167
:10543000D38667EE257AFDEEE77A17EE902A43F8D9
:10544000042F9942E9D1FEF76ABBA74BA3F81C4190
:10545000FEF765BB042C3EF762ABA84D2B7813B169
:10546000002C00F0CC87A04BE4B283F8D541002C8F
:1054700000F0D08701232B70FEF751BB9A4BA3F8A5
:10548000CC40FEF74CBB9E4B9E4ADFED966A964998
:1054900004FB03F482FB0423E417C4EB2333A3F5DA
:1054A000FA7307EE903AF8EEE77A87EEA67A81ED86
:1054B000047A03B0BDEC028BBDE87048FBF7A0BCDA
:1054C000631E022B3EF62BAB874B1C76F1E707EEF3
:1054D000904A9FED8D7A8B49DFED826A8248F8EE23
:1054E000E77A41F6593267EE877AFDEEE77A17EEF2
:1054F000903A02FB03F381FB0312DB17C3EB223369
:1055000007EE903AF8EEE77A87EEA67AB5EEC07A23
:10551000F1EE10FA80ED097A01F16E81DFED7B7A10
:10552000B4EEE77AF1EE10FA40F3598746F6FF73CE
:10553000774A1362FEF7F3BA07EE904A9FED727A4C
:1055400074499FED686ADFED746A6748F8EEE77AA0
:1055500045F6E26267EE877AFDEEE77A17EE903A5B
:1055600002FB03F381FB0312DB17C3EBA22303F25D
:10557000C62307EE903AF8EEE77A87EE867AB4EE25
:10558000E67AF1EE10FA80ED087A00F10B87F3EE7F
:10559000097AB4EEE77AF1EE10FA40F3BE875F4A7B
:1055A0005B4B5A62FEF7BBBA4D4A9FED4E7A4E4DA9
:1055B0004FF47A7303FB04F482FB04232344E417BF
:1055C000C4EBA31407EE904AF8EEE77AC7EE876AB9
:1055D00016EE900A20F028F89FED3D1B41EC100BD1
:1055E0001CF00EFF3CA3D3E9002351EC100B20F07C
:1055F0006FF820F065FB07EE900AFDEEE77A17EEF4
:10560000900A431C6B85FEF78ABA012C3EF787AAE5
:10561000354B002C41F02B81B7EE000A83ED050AD3
:10562000F0EE000A3E48FBF713FBFEF778BA4FF4A2
:105630007A732B4A2C483B49B0F92850CD6203FBC2
:1056400004F482FB04232344E417C4EBA3131BB22A
:1056500083850B63FEF763BA214A9FED227A4FF4EC
:105660007A7303FB04F482FB04232344E417C4EBA2
:10567000A31407EE904AF8EEE77AC7EE876A16EEB3
:10568000900A1FF0D1FF9FED121B41EC100B1CF094
:10569000B7FE51EC100B20F013FB9FED157A124B67
:1056A00007EE900AF4EEC77AF1EE10FAC3F878012B
:1056B00000F365869FED0F7AF4EEC77AF1EE10FAEB
:1056C00040F1DC87184B194A5362FEF728BA00BF35
:1056D0000000000000001440000000000070A7401F
:1056E0000904028100007A44ECDB0120200E022034
:1056F00000FEFF4600FEFFC600008047700E02203D
:105700000487010065FC8E520000C8422EFFDF4076
:10571000401002209B29A4143333333F285C8F02AE
:1057200034FB012044FC0120000001809814022079
:10573000E34A9FEDE47A4FF47A7303FB04F482FBAF
:1057400004232344E417C4EBA31407EE904AF8EEB5
:10575000E77AC7EE876A16EE900A1FF065FF9FEDA5
:10576000D61B41EC100B1CF04BFE51EC100B20F043
:10577000A7FA9FEDD57AD54B07EE900AF4EEC77ADB
:10578000F1EE10FAC3F8840100F3FC859FEDD07AA6
:10579000F4EEC77AF1EE10FA40F17887CD4BCE4A9D
:1057A0005362FEF7BCB9C64A9FEDC67A4FF47A73CE
:1057B00003FB04F482FB04232344E417C4EBA31487
:1057C00007EE904AF8EEE77AC7EE876A16EE900A7F
:1057D0001FF02AFF9FEDB81B41EC100B1CF010FED0
:1057E00051EC100B20F06CFA9FEDB77AB74B07EE37
:1057F000900AF4EEC77AF1EE10FAC3F8800100F3D4
:10580000BB859FEDB37AF4EEC77AF1EE10FA40F162
:105810002D87B04BB14A5362FEF781B9A84A9FED7C
:10582000A97A4FF47A7303FB04F482FB0423234424
:10583000E417C4EBA31407EE904AF8EEE77AC7EE3C
:10584000876A16EE900A1FF0EFFE9FED9B1B41EC5E
:10585000100B1CF0D5FD51EC100B20F031FA9FED30
:105860009A7A9A4B07EE900AF4EEC77AF1EE10FAA4
:10587000C3F8640100F39F859FED957AF4EEC77A33
:10588000F1EE10FA40F12586924B954A9361FEF7AE
:1058900046B98B4A9FED8B7A4FF47A7303FB04F47D
:1058A00082FB04232344E417C4EBA31407EE904ABD
:1058B000F8EEE77AC7EE876A16EE900A1FF0B4FE9C
:1058C0009FED7D1B41EC100B1CF09AFD51EC100B71
:1058D00020F0F6F907EE900A9FED7B7A7B4B77EE8E
:1058E000A77AC3F85801F4EEC77AF1EE10FA00F384
:1058F00040859FED777AF4EEC77AF1EE10FA40F129
:10590000E186744B764A1362FEF709B9230148BF5A
:105910007F336E4A7348DB11C2F81032DAB2114697
:1059200003B0BDEC028BBDE8704814F0D1BA674EED
:105930009FED6D8AD6ED867A0192F8EEE77ACC1A61
:1059400067EE887A009317EE900A1FF06DFE41EC27
:10595000100B1CF0F5FA51EC100B20F069F9D6F899
:105960001C127F3107EE901AF8EEE77A054667EED3
:10597000887A17EE900A1FF057FE41EC100B1CF0CE
:10598000DFFA51EC100B20F053F9009B019A281A12
:10599000A042A2EB030380F2928400FB0333611C5C
:1059A00093FBF1F35D1B514B1D62FEF7B8B8474EF8
:1059B0009FED4D8AD6ED867A0192F8EEE77ACC1A01
:1059C00067EE887A009317EE900A1FF02DFE41ECE7
:1059D000100B1CF0B5FA51EC100B20F029F9D6F899
:1059E0001C127F3107EE901AF8EEE77A054667EE53
:1059F000887A17EE900A1FF017FE41EC100B1CF08E
:105A00009FFA51EC100B20F013F9009B019A401BF8
:105A1000A042A2EB030380F2598400FB0333611C14
:105A200093FBF1F31D44314B1D62FEF778B8244A15
:105A30009FED247A4FF47A7303FB04F482FB042372
:105A40002344E417C4EBA31407EE904AF8EEE77A78
:105A5000C7EE876A16EE900A1FF0E6FD9FED161B53
:105A600041EC100B1CF0CCFC51EC100B20F028F991
:105A70009FED157A154B07EE900AF4EEC77AF1EE1A
:105A800010FAC3F8680100F3A7849FED117AF4EED1
:105A9000C77AF1EE10FA40F130850E4B0F4AD36110
:105AA000FEF73DB8182C3EF73AA8084B0C3C83F89B
:105AB0004240FEF734B800BF000000000000144070
:105AC0000904028100007A4400FEFF46ECDB01205D
:105AD00000FEFFC600000180CC0F0220C813022088
